:100000000C94EE000C9416010C9416010C9416013D
:100010000C9416010C9416010C9416010C94160104
:100020000C9416010C9416010C94DD030C944C04F2
:100030000C9416010C9416010C9416010C941601E4
:100040000C9416010C9416010C9416010C941601D4
:100050000C9416010C9416010C9416010C94930345
:100060000C9416010C9416010C9416010C941601B4
:100070000C9416010C9416010C9416010C941601A4
:100080000C9416010C9416010C9416010C94160194
:100090000C9416010C9416010C9416010C94160184
:1000A0000C9416010C9416010C941601080B000216
:1000B0000202000009040000010202000005240001
:1000C0001001052401010104240206052406000193
:1000D0000705810310004009040100020A00000026
:1000E00007050202400000070583024000000403E8
:1000F000090412010002EF02014041233780000190
:100100000102030141726475696E6F204C4C43001B
:1001100041726475696E6F204D6963726F000000F3
:100120000000250028002B002E00310000000000F8
:10013000240027002A002D003000656E64207365BE
:1001400074757000696E746572727570742E2E2EDF
:10015000696E6974005374617274206669726D7798
:100160006172652076657273696F6E3A20000000D7
:1001700000002300260029002C002F0004040404A2
:10018000040304050202020204030202020206063C
:100190000606060604040202020404040802011012
:1001A00040804010204080408008020401804020B0
:1001B00010020110801020404020000000020009C1
:1001C0000F0000030401000C00000000000000000C
:1001D00000000000000000000000580811241FBEAD
:1001E000CFEFDAE0DEBFCDBF11E0A0E0B1E0E8EF95
:1001F000F0E102C005900D92A037B107D9F721E0D8
:10020000A0E7B1E001C01D92A83EB207E1F710E0FF
:10021000CEEED0E004C02197FE010E946D08CD3ED5
:10022000D107C9F70E947E060C947A080C9400004E
:10023000FC0180919701882311F13FB7F89482E087
:100240008093E9002091F200822F90E018161906A1
:1002500014F481E090E0882339F0289A44E6409332
:1002600096014091F1004083222339F02091F20061
:10027000211103C02BE62093E8003FBF08958FEFC4
:100280009FEF08952FB7F89483E08093E900909151
:10029000E800892F807295FF04C09091F20080E4FD
:1002A000891B2FBF089580918E0181110DC082E0BE
:1002B00080938A0184E080938B0110928D011092CB
:1002C0008C0181E080938E018AE891E008953FB728
:1002D000F8948091860190918701A0918801B09156
:1002E000890126B5A89B05C02F3F19F00196A11DD5
:1002F000B11D3FBFBA2FA92F982F8827BC01CD0170
:10030000620F711D811D911D42E0660F771F881FCE
:10031000991F4A95D1F70895CF92DF92EF92FF92FD
:100320000E9467016B017C010E9467016C197D09C5
:100330008E099F09683E734081059105A8F3FF90DF
:10034000EF90DF90CF90089540917201509173012A
:10035000209170013091710142175307B4F49091CC
:10036000E8009570E1F39091E80092FD19C0809348
:10037000F100809172019091730101968F7399271A
:10038000892B19F48EEF8093E8008091720190918F
:1003900073010196909373018093720181E0089537
:1003A00080E00895EF92FF920F931F93CF93DF9316
:1003B000F82E192FE62E042F81E0860F880F0E9459
:1003C000A40183E00E94A401CF2DD12FEC0EFD2EBD
:1003D000F11CCE15DF05B9F007FF13C0FE018491B3
:1003E0000E94A401182F80E00E94A401812321967D
:1003F0008111EFCFDF91CF911F910F91FF90EF907F
:1004000008958881EDCF81E0F5CFDF92EF92FF92E2
:100410000F931F93CF93DF93D82E8A01EB017B01BB
:10042000E40EF51ECE15DF0559F0D7FE12C0FE0111
:1004300084910E94A40121968111F4CF0FEF1FEF48
:10044000C801DF91CF911F910F91FF90EF90DF9046
:1004500008958881EECF0F931F93CF93DF931F9260
:10046000CDB7DEB782E0898342E450E06CEA70E009
:1004700080E80E9405020E945301DC0112960D9152
:100480001C910115110589F0D801ED91FC910280B4
:10049000F381E02DBE016F5F7F4FC801099597FD85
:1004A00004C0F80100851185ECCF89810F90DF91A0
:1004B000CF911F910F910895615030F02091F1007C
:1004C000FC0120830196F8CF289A84E68093960158
:1004D00008958F929F92AF92BF92CF92DF92EF9248
:1004E000FF920F931F93CF93DF936C017B018A01DF
:1004F00080910B01882309F458C0809197018823CB
:1005000009F453C08091760180FF05C08091E0001E
:1005100082608093E000E801B12C8AEFA82E93E07E
:10052000892E2AE3922E209711F4BB20B9F10E9464
:100530004201811106C0AA94AA20B9F10E948C013F
:10054000F2CF8C171D0611F00CF08C2F9FB7F8948A
:100550008092E9002091E80025FD02C09FBFE3CF13
:10056000282F30E0C21BD30BF701815020F04191BE
:100570004093F100FACFE20EF31EBB2021F09092DF
:10058000E800B12CEBCF8091E80085FDE7CF909299
:10059000E800BB24B394209709F3F3CF5D9A84E677
:1005A00080937501101611063CF081E090E0F60191
:1005B0009383828310E000E0C801DF91CF911F9107
:1005C0000F91FF90EF90DF90CF90BF90AF909F90F2
:1005D0008F900895CF93DF931F92CDB7DEB76983D5
:1005E000DC01ED91FC910280F381E02D41E050E0CF
:1005F000BE016F5F7F4F09950F90DF91CF910895F6
:100600000F931F93CF93DF938C01D0E0C0E0F801EC
:10061000EC0FFD1F6491662341F088E991E00E9490
:10062000EA02892B11F02196F2CFCE01DF91CF9112
:100630001F910F91089583E08093E9008091F2006B
:10064000882319F08AE38093E80008950E9442010C
:1006500090E00895CF93DF931F92CDB7DEB7FC01F2
:100660008485958597FD08C02FEF3FEF3587248758
:100670000F90DF91CF910895CE0101960E9418014D
:10068000019719F4898190E0F3CF8FEF9FEFF0CFBE
:100690000F931F93CF93DF931F92CDB7DEB78C01DB
:1006A000FC018485958597FF0BC0CE0101960E94C1
:1006B0001801019771F4898190E0F801958784878A
:1006C000F801848595850F90DF91CF911F910F914F
:1006D00008958FEF9FEFF1CFFC018485958597FDFD
:1006E0000BC09FB7F89482E08093E9008091F200FC
:1006F0009FBF90E0019608959FB7F89482E08093A1
:10070000E9008091F2009FBF90E00895FC01019004
:100710000020E9F73197AF01481B590BBC0188E96C
:1007200091E00C9469021F920F920FB60F92112460
:100730002F933F938F939F93AF93BF9380918201A9
:1007400090918301A0918401B09185013091810144
:1007500023E0230F2D3758F50196A11DB11D2093DD
:1007600081018093820190938301A0938401B093CF
:1007700085018091860190918701A0918801B091B7
:1007800089010196A11DB11D809386019093870177
:10079000A0938801B0938901BF91AF919F918F91F0
:1007A0003F912F910F900FBE0F901F90189526E844
:1007B000230F0296A11DB11DD2CF1F920F920FB62B
:1007C0000F9211248F939F938091E1009091E1000B
:1007D000937F9093E10083FF0FC01092E90091E0B6
:1007E0009093EB001092EC0092E39093ED00109246
:1007F000970198E09093F00082FF22C093E09093DD
:10080000E9009091F200992319F09AE39093E8009F
:1008100090917501992341F09091750191509093B9
:100820007501911101C05D9890919601992341F055
:1008300090919601915090939601911101C0289842
:1008400084FF18C08091E2008E7E81608093E20078
:100850008091E1008F7E8093E100809176018E7E11
:100860008061809376019F918F910F900FBE0F90C2
:100870001F90189580FFF7CF8091E2008E7E8061F7
:100880008093E2008091E1008E7E8093E100809170
:1008900076018E7E8160E5CF1F920F920FB60F9288
:1008A0001124CF92DF92EF92FF920F931F932F9319
:1008B0003F934F935F936F937F938F939F93AF93E8
:1008C000BF93EF93FF93CF93DF93CDB7DEB76C97D2
:1008D000DEBFCDBF1092E9008091E80083FF25C004
:1008E00068E0CE0145960E945C0282EF8093E800AA
:1008F0008D8987FF39C09091E80090FFFCCF982F39
:10090000907609F034C19E894F89588D2F89F88CD3
:10091000911131C0803861F5809177018093F100A9
:100920001092F1008EEF8093E8006C960FB6F89469
:10093000DEBF0FBECDBFDF91CF91FF91EF91BF9191
:10094000AF919F918F917F916F915F914F913F9167
:100950002F911F910F91FF90EF90DF90CF900F900C
:100960000FBE0F901F9018959EEF9093E800C7CF91
:100970001092F100D5CF913059F48111D3CF41308D
:10098000510581F6809177018D7F80937701CACFE1
:10099000933049F48111C6CF4130510519F6809149
:1009A00077018260F2CF953041F48091E80080FFBA
:1009B000FCCF20682093E300B5CF963009F0A9C0A2
:1009C0000B8D1C8D22E01092E900109273011092A1
:1009D0007201F2122EC010927101109270010E94E9
:1009E0002B021F8299E09983FA8291E09E8390EA1C
:1009F00098879AEF99872091720130917301275F50
:100A00003F4F3C832B838D831092E900109273013A
:100A100010927201109371010093700149E050E04F
:100A2000BE016F5F7F4F80E00E9405020E942B0293
:100A300079CF10937101009370010E945301DC0182
:100A400012960D911C910115110509F451C1D8019F
:100A5000ED91FC910480F581E02DBE016B5E7F4F2E
:100A6000C8010995009709F03EC1F801008511857C
:100A7000EACFF3E0FF120EC08F89882309F440C04B
:100A8000823061F440E86DE080E191E00E94D201A3
:100A9000811148CF81E28093EB0047CF813029F468
:100AA00040E86BE084E091E0F1CF833099F70E9459
:100AB0005301DC011296ED90FC908E010F5F1F4FE9
:100AC0006801E114F10479F0D701ED91FC91068001
:100AD000F781E02DB801C7010995080F111DF70135
:100AE000E084F184EECFD8011C92F6010190002041
:100AF000E9F73197BF016C197D0940E0C601C6CF07
:100B00006EEE70E0FB01449150E080E80E94050227
:100B100009CF973009F4BECF983021F481E080935B
:100B2000F10000CF993009F0FDCE837009F0B2CF0B
:100B3000EFE1F1E081E031E096E32191222371F0D1
:100B40008093E9003093EB00DF0111972C91209303
:100B5000EC009093ED008F5F873079F78EE78093FC
:100B6000EA001092EA008F8980939701DBCE8B8D8B
:100B70009C8D1092E9001092730110927201909373
:100B8000710180937001898D811192C08E899D8938
:100B9000913A49F4813209F07DCF47E050E064E0BA
:100BA00071E080E0B3CF913209F074CF833269F401
:100BB0008F89988DB0E0A0E08093000190930101AF
:100BC000A0930201B0930301ADCE803269F480910D
:100BD000E80082FFFCCF67E084E091E00E945C02C5
:100BE0008BEF8093E8009ECE823209F09BCE8F89F6
:100BF00080930B01EEEFFFE7859194918B3F9C4D25
:100C000051F1E0E0F8E08091040190910501A0919C
:100C10000601B0910701803B9440A105B105F1F4B4
:100C200080910B0180FD1AC0EE3F8AE0F80789F53C
:100C300087E797E7918380838091600080937401B8
:100C400088E19BE00FB6F894A895809360000FBEF2
:100C50009093600067CEEEEFFAE0D5CF808191816E
:100C60008737974709F05ECEA8958091600088612C
:100C7000809360008091740180936000EE3F2AE0D1
:100C8000F20789F08091FE0A9091FF0A9183808398
:100C900049CE808191818737980751F29093FF0A5E
:100CA0008093FE0AC5CF1092FF0A1092FE0A3ACE38
:100CB0000E945301DC0112960D911C910115110542
:100CC00009F4E8CED801ED91FC910190F081E02D7E
:100CD000BE016B5E7F4FC8010995811123CEF801DB
:100CE00000851185EBCF181619060CF41BCED2CE59
:100CF000F1E0FF12BECE62EF70E004CFCF93DF933E
:100D0000CDB7DEB76E970FB6F894DEBF0FBECDBF7E
:100D1000789484B5826084BD84B5816084BD85B5D6
:100D2000826085BD85B5816085BD80916E008160E2
:100D300080936E0010928100809181008260809388
:100D4000810080918100816080938100809180008A
:100D500081608093800080919100826080939100F7
:100D600080919100816080939100809190008160DA
:100D7000809390008091C10084608093C100809135
:100D8000C10082608093C1008091C1008160809326
:100D9000C1008091C30081608093C3008091C00036
:100DA00082608093C0008091C20081608093C20005
:100DB00080917A00846080937A0080917A008260CA
:100DC00080937A0080917A00816080937A0080918C
:100DD0007A00806880937A001092970110927701D0
:100DE000109276018091D70081608093D70080EACD
:100DF0008093D80089B5806189BD89B5826089BD3D
:100E000009B400FEFDCF0E948C018091D8008F7C38
:100E100080618093D8008091E000807F8093E00023
:100E20008091E1008E7E8093E1008DE08093E2006E
:100E3000559A209A5D9828988FEF9FEF9093A5017F
:100E40008093A40185E591E00E94000384E491E091
:100E50000E9400030DE911E0F80124914EE7E42E11
:100E600041E0F42EF70184918823C9F090E0880FC7
:100E7000991FFC01E45DFE4FA591B491FC01E25E77
:100E8000FE4F459154919FB7F8943C91822F8095E5
:100E900083238C93FA018081282B20839FBF2FB757
:100EA000F8948091820190918301A0918401B09186
:100EB00085012FBF80937D0190937E01A0937F01D8
:100EC000B09380018AE391E00E94000342E050E089
:100ED00065E271E088E991E00E9469029CEBC92E0D
:100EE00091E0D92E20E0A22E20E0B22E8FB7F89408
:100EF0004090820150908301609084017090850140
:100F00008FBFF6012491F8019491F7018491912CFF
:100F1000882309F42DC02223E9F021502F30D0F48A
:100F2000E22FF0E0EA56F84F0C946D0833083708CA
:100F3000A5072B082F08AA07AA07AA073A084008FE
:100F4000440848084E08AA075208209180002F77CD
:100F500020938000E82FF0E0EE0FFF1FE259FE4FD4
:100F6000A591B4918C91982381E009F480E0982EAA
:100F70002FB7F8948091820190918301A091840110
:100F8000B09185012FBF805D9A48AF4FBF4F409110
:100F90007D0150917E0160917F01709180018417E5
:100FA0009507A607B707B8F42FB7F8948091820188
:100FB00090918301A0918401B09185012FBF80930E
:100FC0007D0190937E01A0937F01B093800188E220
:100FD00091E00E94860380917C019816A9F180918E
:100FE000780190917901A0917A01B0917B01A301E0
:100FF0009201281B390B4A0B5B0BDA01C9018436BD
:101000009105A105B10500F1409278015092790156
:1010100060927A0170927B016DE371E0992011F08A
:1010200063E471E0CE0101960E94730888E491E0C8
:101030000E948603CE0101960E94860389E691E014
:101040000E94860390927C01A114B10409F44ECF52
:101050000E9400004BCF209180002F7D79CF2091FE
:101060008000277F75CF24B52F7724BD73CF24B59B
:101070002F7DFBCF209190002F77209390006ACF97
:10108000209190002F7DF9CF20919000277FF5CF00
:101090002091C0002F772093C0005CCF2091C0002A
:1010A0002F7DF9CF2091C200277F2093C20052CF1D
:1010B000E8E9F1E01382128288EE93E0A0E0B0E06C
:1010C00084839583A683B78380E191E091838083B5
:1010D0008FEF9FEF958784870895EE0FFF1F059090
:1010E000F491E02D0994FB01DC0101900D920020A8
:0810F000E1F70895F894FFCF29
:1010F800FFFFFFFF00E1000000000000000000000B
:10110800EA02690226031B036C032A03480300C191
:1011180080810000000D0A007B226D223A2270694E
:101128006E67222C2270223A5B5D7D0A007374611F
:1011380072740073746F70007B226D223A2272659C
:10114800636F7264222C2270223A5B7B22636F6D7C
:101158006D616E64223A202200227D5D7D0A0000C6
:00000001FF
